{
  "contractName": "MomentoX",
  "abi": [
    {
      "inputs": [],
      "stateMutability": "nonpayable",
      "type": "constructor"
    },
    {
      "anonymous": false,
      "inputs": [
        {
          "indexed": true,
          "internalType": "address",
          "name": "owner",
          "type": "address"
        },
        {
          "indexed": true,
          "internalType": "address",
          "name": "approved",
          "type": "address"
        },
        {
          "indexed": true,
          "internalType": "uint256",
          "name": "tokenId",
          "type": "uint256"
        }
      ],
      "name": "Approval",
      "type": "event"
    },
    {
      "anonymous": false,
      "inputs": [
        {
          "indexed": true,
          "internalType": "address",
          "name": "owner",
          "type": "address"
        },
        {
          "indexed": true,
          "internalType": "address",
          "name": "operator",
          "type": "address"
        },
        {
          "indexed": false,
          "internalType": "bool",
          "name": "approved",
          "type": "bool"
        }
      ],
      "name": "ApprovalForAll",
      "type": "event"
    },
    {
      "anonymous": false,
      "inputs": [
        {
          "indexed": false,
          "internalType": "address",
          "name": "_who",
          "type": "address"
        },
        {
          "indexed": false,
          "internalType": "uint256",
          "name": "_nftId",
          "type": "uint256"
        },
        {
          "indexed": false,
          "internalType": "uint256",
          "name": "_amount",
          "type": "uint256"
        }
      ],
      "name": "EthClaimed",
      "type": "event"
    },
    {
      "anonymous": false,
      "inputs": [
        {
          "indexed": false,
          "internalType": "address",
          "name": "_who",
          "type": "address"
        },
        {
          "indexed": false,
          "internalType": "uint256",
          "name": "_nftId",
          "type": "uint256"
        },
        {
          "indexed": false,
          "internalType": "uint256",
          "name": "_amount",
          "type": "uint256"
        }
      ],
      "name": "EthInfused",
      "type": "event"
    },
    {
      "anonymous": false,
      "inputs": [
        {
          "indexed": false,
          "internalType": "address",
          "name": "_from",
          "type": "address"
        },
        {
          "indexed": false,
          "internalType": "address",
          "name": "_to",
          "type": "address"
        },
        {
          "indexed": false,
          "internalType": "uint256",
          "name": "_nftId",
          "type": "uint256"
        }
      ],
      "name": "NftTransfered",
      "type": "event"
    },
    {
      "anonymous": false,
      "inputs": [
        {
          "indexed": true,
          "internalType": "address",
          "name": "previousOwner",
          "type": "address"
        },
        {
          "indexed": true,
          "internalType": "address",
          "name": "newOwner",
          "type": "address"
        }
      ],
      "name": "OwnershipTransferred",
      "type": "event"
    },
    {
      "anonymous": false,
      "inputs": [
        {
          "indexed": false,
          "internalType": "address",
          "name": "account",
          "type": "address"
        }
      ],
      "name": "Paused",
      "type": "event"
    },
    {
      "anonymous": false,
      "inputs": [
        {
          "indexed": true,
          "internalType": "address",
          "name": "from",
          "type": "address"
        },
        {
          "indexed": true,
          "internalType": "address",
          "name": "to",
          "type": "address"
        },
        {
          "indexed": true,
          "internalType": "uint256",
          "name": "tokenId",
          "type": "uint256"
        }
      ],
      "name": "Transfer",
      "type": "event"
    },
    {
      "anonymous": false,
      "inputs": [
        {
          "indexed": false,
          "internalType": "address",
          "name": "account",
          "type": "address"
        }
      ],
      "name": "Unpaused",
      "type": "event"
    },
    {
      "inputs": [
        {
          "internalType": "address",
          "name": "to",
          "type": "address"
        },
        {
          "internalType": "uint256",
          "name": "tokenId",
          "type": "uint256"
        }
      ],
      "name": "approve",
      "outputs": [],
      "stateMutability": "nonpayable",
      "type": "function"
    },
    {
      "inputs": [
        {
          "internalType": "address",
          "name": "owner",
          "type": "address"
        }
      ],
      "name": "balanceOf",
      "outputs": [
        {
          "internalType": "uint256",
          "name": "",
          "type": "uint256"
        }
      ],
      "stateMutability": "view",
      "type": "function",
      "constant": true
    },
    {
      "inputs": [
        {
          "internalType": "uint256",
          "name": "tokenId",
          "type": "uint256"
        }
      ],
      "name": "burn",
      "outputs": [],
      "stateMutability": "nonpayable",
      "type": "function"
    },
    {
      "inputs": [
        {
          "internalType": "uint256",
          "name": "tokenId",
          "type": "uint256"
        }
      ],
      "name": "getApproved",
      "outputs": [
        {
          "internalType": "address",
          "name": "",
          "type": "address"
        }
      ],
      "stateMutability": "view",
      "type": "function",
      "constant": true
    },
    {
      "inputs": [
        {
          "internalType": "address",
          "name": "owner",
          "type": "address"
        },
        {
          "internalType": "address",
          "name": "operator",
          "type": "address"
        }
      ],
      "name": "isApprovedForAll",
      "outputs": [
        {
          "internalType": "bool",
          "name": "",
          "type": "bool"
        }
      ],
      "stateMutability": "view",
      "type": "function",
      "constant": true
    },
    {
      "inputs": [],
      "name": "name",
      "outputs": [
        {
          "internalType": "string",
          "name": "",
          "type": "string"
        }
      ],
      "stateMutability": "view",
      "type": "function",
      "constant": true
    },
    {
      "inputs": [],
      "name": "owner",
      "outputs": [
        {
          "internalType": "address",
          "name": "",
          "type": "address"
        }
      ],
      "stateMutability": "view",
      "type": "function",
      "constant": true
    },
    {
      "inputs": [
        {
          "internalType": "uint256",
          "name": "tokenId",
          "type": "uint256"
        }
      ],
      "name": "ownerOf",
      "outputs": [
        {
          "internalType": "address",
          "name": "",
          "type": "address"
        }
      ],
      "stateMutability": "view",
      "type": "function",
      "constant": true
    },
    {
      "inputs": [],
      "name": "paused",
      "outputs": [
        {
          "internalType": "bool",
          "name": "",
          "type": "bool"
        }
      ],
      "stateMutability": "view",
      "type": "function",
      "constant": true
    },
    {
      "inputs": [],
      "name": "renounceOwnership",
      "outputs": [],
      "stateMutability": "nonpayable",
      "type": "function"
    },
    {
      "inputs": [
        {
          "internalType": "address",
          "name": "from",
          "type": "address"
        },
        {
          "internalType": "address",
          "name": "to",
          "type": "address"
        },
        {
          "internalType": "uint256",
          "name": "tokenId",
          "type": "uint256"
        }
      ],
      "name": "safeTransferFrom",
      "outputs": [],
      "stateMutability": "nonpayable",
      "type": "function"
    },
    {
      "inputs": [
        {
          "internalType": "address",
          "name": "from",
          "type": "address"
        },
        {
          "internalType": "address",
          "name": "to",
          "type": "address"
        },
        {
          "internalType": "uint256",
          "name": "tokenId",
          "type": "uint256"
        },
        {
          "internalType": "bytes",
          "name": "data",
          "type": "bytes"
        }
      ],
      "name": "safeTransferFrom",
      "outputs": [],
      "stateMutability": "nonpayable",
      "type": "function"
    },
    {
      "inputs": [
        {
          "internalType": "address",
          "name": "operator",
          "type": "address"
        },
        {
          "internalType": "bool",
          "name": "approved",
          "type": "bool"
        }
      ],
      "name": "setApprovalForAll",
      "outputs": [],
      "stateMutability": "nonpayable",
      "type": "function"
    },
    {
      "inputs": [
        {
          "internalType": "bytes4",
          "name": "interfaceId",
          "type": "bytes4"
        }
      ],
      "name": "supportsInterface",
      "outputs": [
        {
          "internalType": "bool",
          "name": "",
          "type": "bool"
        }
      ],
      "stateMutability": "view",
      "type": "function",
      "constant": true
    },
    {
      "inputs": [],
      "name": "symbol",
      "outputs": [
        {
          "internalType": "string",
          "name": "",
          "type": "string"
        }
      ],
      "stateMutability": "view",
      "type": "function",
      "constant": true
    },
    {
      "inputs": [
        {
          "internalType": "address",
          "name": "from",
          "type": "address"
        },
        {
          "internalType": "address",
          "name": "to",
          "type": "address"
        },
        {
          "internalType": "uint256",
          "name": "tokenId",
          "type": "uint256"
        }
      ],
      "name": "transferFrom",
      "outputs": [],
      "stateMutability": "nonpayable",
      "type": "function"
    },
    {
      "inputs": [
        {
          "internalType": "address",
          "name": "newOwner",
          "type": "address"
        }
      ],
      "name": "transferOwnership",
      "outputs": [],
      "stateMutability": "nonpayable",
      "type": "function"
    },
    {
      "inputs": [
        {
          "internalType": "address",
          "name": "to",
          "type": "address"
        },
        {
          "internalType": "string",
          "name": "uri",
          "type": "string"
        },
        {
          "internalType": "uint256",
          "name": "ethWei",
          "type": "uint256"
        }
      ],
      "name": "safeMintInfused",
      "outputs": [],
      "stateMutability": "payable",
      "type": "function",
      "payable": true
    },
    {
      "inputs": [
        {
          "internalType": "address",
          "name": "owner",
          "type": "address"
        }
      ],
      "name": "getOwnerNFT",
      "outputs": [
        {
          "internalType": "uint256[]",
          "name": "",
          "type": "uint256[]"
        }
      ],
      "stateMutability": "view",
      "type": "function",
      "constant": true
    },
    {
      "inputs": [
        {
          "internalType": "uint256",
          "name": "nftId",
          "type": "uint256"
        }
      ],
      "name": "getNftInfusedEth",
      "outputs": [
        {
          "internalType": "uint256",
          "name": "",
          "type": "uint256"
        }
      ],
      "stateMutability": "view",
      "type": "function",
      "constant": true
    },
    {
      "inputs": [],
      "name": "getContractBalance",
      "outputs": [
        {
          "internalType": "uint256",
          "name": "",
          "type": "uint256"
        }
      ],
      "stateMutability": "view",
      "type": "function",
      "constant": true
    },
    {
      "inputs": [
        {
          "internalType": "uint256",
          "name": "nftId",
          "type": "uint256"
        }
      ],
      "name": "claimEth",
      "outputs": [],
      "stateMutability": "nonpayable",
      "type": "function"
    },
    {
      "inputs": [
        {
          "internalType": "address",
          "name": "to",
          "type": "address"
        },
        {
          "internalType": "uint256",
          "name": "nftId",
          "type": "uint256"
        }
      ],
      "name": "safeTransferInfusedNft",
      "outputs": [],
      "stateMutability": "nonpayable",
      "type": "function"
    },
    {
      "inputs": [],
      "name": "getTokenCounter",
      "outputs": [
        {
          "internalType": "uint256",
          "name": "",
          "type": "uint256"
        }
      ],
      "stateMutability": "view",
      "type": "function",
      "constant": true
    },
    {
      "inputs": [],
      "name": "pause",
      "outputs": [],
      "stateMutability": "nonpayable",
      "type": "function"
    },
    {
      "inputs": [],
      "name": "unpause",
      "outputs": [],
      "stateMutability": "nonpayable",
      "type": "function"
    },
    {
      "inputs": [
        {
          "internalType": "address",
          "name": "to",
          "type": "address"
        },
        {
          "internalType": "string",
          "name": "uri",
          "type": "string"
        }
      ],
      "name": "safeMint",
      "outputs": [],
      "stateMutability": "nonpayable",
      "type": "function"
    },
    {
      "inputs": [
        {
          "internalType": "uint256",
          "name": "tokenId",
          "type": "uint256"
        }
      ],
      "name": "tokenURI",
      "outputs": [
        {
          "internalType": "string",
          "name": "",
          "type": "string"
        }
      ],
      "stateMutability": "view",
      "type": "function",
      "constant": true
    }
  ],
  "bytecode": "0x60806040523480156200001157600080fd5b506040518060400160405280600881526020017f4d6f6d656e746f580000000000000000000000000000000000000000000000008152506040518060400160405280600381526020017f4d4f58000000000000000000000000000000000000000000000000000000000081525081600090816200008f91906200042d565b508060019081620000a191906200042d565b5050506000600760006101000a81548160ff021916908315150217905550620000df620000d3620000e560201b60201c565b620000ed60201b60201c565b62000514565b600033905090565b6000600760019054906101000a900473ffffffffffffffffffffffffffffffffffffffff16905081600760016101000a81548173ffffffffffffffffffffffffffffffffffffffff021916908373ffffffffffffffffffffffffffffffffffffffff1602179055508173ffffffffffffffffffffffffffffffffffffffff168173ffffffffffffffffffffffffffffffffffffffff167f8be0079c531659141344cd1fd0a4f28419497f9722a3daafe3b4186f6b6457e060405160405180910390a35050565b600081519050919050565b7f4e487b7100000000000000000000000000000000000000000000000000000000600052604160045260246000fd5b7f4e487b7100000000000000000000000000000000000000000000000000000000600052602260045260246000fd5b600060028204905060018216806200023557607f821691505b6020821081036200024b576200024a620001ed565b5b50919050565b60008190508160005260206000209050919050565b60006020601f8301049050919050565b600082821b905092915050565b600060088302620002b57fffffffffffffffffffffffffffffffffffffffffffffffffffffffffffffffff8262000276565b620002c1868362000276565b95508019841693508086168417925050509392505050565b6000819050919050565b6000819050919050565b60006200030e620003086200030284620002d9565b620002e3565b620002d9565b9050919050565b6000819050919050565b6200032a83620002ed565b62000342620003398262000315565b84845462000283565b825550505050565b600090565b620003596200034a565b620003668184846200031f565b505050565b5b818110156200038e57620003826000826200034f565b6001810190506200036c565b5050565b601f821115620003dd57620003a78162000251565b620003b28462000266565b81016020851015620003c2578190505b620003da620003d18562000266565b8301826200036b565b50505b505050565b600082821c905092915050565b60006200040260001984600802620003e2565b1980831691505092915050565b60006200041d8383620003ef565b9150826002028217905092915050565b6200043882620001b3565b67ffffffffffffffff811115620004545762000453620001be565b5b6200046082546200021c565b6200046d82828562000392565b600060209050601f831160018114620004a5576000841562000490578287015190505b6200049c85826200040f565b8655506200050c565b601f198416620004b58662000251565b60005b82811015620004df57848901518255600182019150602085019450602081019050620004b8565b86831015620004ff5784890151620004fb601f891682620003ef565b8355505b6001600288020188555050505b505050505050565b613f5680620005246000396000f3fe6080604052600436106101b75760003560e01c806370a08231116100ec578063b88d4fde1161008a578063d204c45e11610064578063d204c45e146105d5578063d942dc94146105fe578063e985e9c51461063b578063f2fde38b14610678576101b7565b8063b88d4fde14610546578063c87b56dd1461056f578063cbd99868146105ac576101b7565b80638da5cb5b116100c65780638da5cb5b1461048a5780639416d0a1146104b557806395d89b41146104f2578063a22cb4651461051d576101b7565b806370a082311461041f578063715018a61461045c5780638456cb5914610473576101b7565b806342966c68116101595780636352211e116101335780636352211e146103635780636a27bab5146103a05780636e02007d146103c95780636f9fb98a146103f4576101b7565b806342966c68146102f357806344ea80c21461031c5780635c975abb14610338576101b7565b8063095ea7b311610195578063095ea7b31461026157806323b872dd1461028a5780633f4ba83a146102b357806342842e0e146102ca576101b7565b806301ffc9a7146101bc57806306fdde03146101f9578063081812fc14610224575b600080fd5b3480156101c857600080fd5b506101e360048036038101906101de9190612815565b6106a1565b6040516101f0919061285d565b60405180910390f35b34801561020557600080fd5b5061020e610783565b60405161021b9190612908565b60405180910390f35b34801561023057600080fd5b5061024b60048036038101906102469190612960565b610815565b60405161025891906129ce565b60405180910390f35b34801561026d57600080fd5b5061028860048036038101906102839190612a15565b61085b565b005b34801561029657600080fd5b506102b160048036038101906102ac9190612a55565b610972565b005b3480156102bf57600080fd5b506102c86109d2565b005b3480156102d657600080fd5b506102f160048036038101906102ec9190612a55565b6109e4565b005b3480156102ff57600080fd5b5061031a60048036038101906103159190612960565b610a04565b005b61033660048036038101906103319190612bdd565b610a60565b005b34801561034457600080fd5b5061034d610b79565b60405161035a919061285d565b60405180910390f35b34801561036f57600080fd5b5061038a60048036038101906103859190612960565b610b90565b60405161039791906129ce565b60405180910390f35b3480156103ac57600080fd5b506103c760048036038101906103c29190612a15565b610c41565b005b3480156103d557600080fd5b506103de610cfb565b6040516103eb9190612c5b565b60405180910390f35b34801561040057600080fd5b50610409610d0c565b6040516104169190612c5b565b60405180910390f35b34801561042b57600080fd5b5061044660048036038101906104419190612c76565b610d14565b6040516104539190612c5b565b60405180910390f35b34801561046857600080fd5b50610471610dcb565b005b34801561047f57600080fd5b50610488610ddf565b005b34801561049657600080fd5b5061049f610df1565b6040516104ac91906129ce565b60405180910390f35b3480156104c157600080fd5b506104dc60048036038101906104d79190612960565b610e1b565b6040516104e99190612c5b565b60405180910390f35b3480156104fe57600080fd5b50610507610e38565b6040516105149190612908565b60405180910390f35b34801561052957600080fd5b50610544600480360381019061053f9190612ccf565b610eca565b005b34801561055257600080fd5b5061056d60048036038101906105689190612db0565b610ee0565b005b34801561057b57600080fd5b5061059660048036038101906105919190612960565b610f42565b6040516105a39190612908565b60405180910390f35b3480156105b857600080fd5b506105d360048036038101906105ce9190612960565b610f54565b005b3480156105e157600080fd5b506105fc60048036038101906105f79190612e33565b611081565b005b34801561060a57600080fd5b5061062560048036038101906106209190612c76565b6110b2565b6040516106329190612f4d565b60405180910390f35b34801561064757600080fd5b50610662600480360381019061065d9190612f6f565b611149565b60405161066f919061285d565b60405180910390f35b34801561068457600080fd5b5061069f600480360381019061069a9190612c76565b6111dd565b005b60007f80ac58cd000000000000000000000000000000000000000000000000000000007bffffffffffffffffffffffffffffffffffffffffffffffffffffffff1916827bffffffffffffffffffffffffffffffffffffffffffffffffffffffff1916148061076c57507f5b5e139f000000000000000000000000000000000000000000000000000000007bffffffffffffffffffffffffffffffffffffffffffffffffffffffff1916827bffffffffffffffffffffffffffffffffffffffffffffffffffffffff1916145b8061077c575061077b82611260565b5b9050919050565b60606000805461079290612fde565b80601f01602080910402602001604051908101604052809291908181526020018280546107be90612fde565b801561080b5780601f106107e05761010080835404028352916020019161080b565b820191906000526020600020905b8154815290600101906020018083116107ee57829003601f168201915b5050505050905090565b6000610820826112ca565b6004600083815260200190815260200160002060009054906101000a900473ffffffffffffffffffffffffffffffffffffffff169050919050565b600061086682610b90565b90508073ffffffffffffffffffffffffffffffffffffffff168373ffffffffffffffffffffffffffffffffffffffff16036108d6576040517f08c379a00000000000000000000000000000000000000000000000000000000081526004016108cd90613081565b60405180910390fd5b8073ffffffffffffffffffffffffffffffffffffffff166108f5611315565b73ffffffffffffffffffffffffffffffffffffffff16148061092457506109238161091e611315565b611149565b5b610963576040517f08c379a000000000000000000000000000000000000000000000000000000000815260040161095a90613113565b60405180910390fd5b61096d838361131d565b505050565b61098361097d611315565b826113d6565b6109c2576040517f08c379a00000000000000000000000000000000000000000000000000000000081526004016109b9906131a5565b60405180910390fd5b6109cd83838361146b565b505050565b6109da6116d1565b6109e261174f565b565b6109ff83838360405180602001604052806000815250610ee0565b505050565b610a15610a0f611315565b826113d6565b610a54576040517f08c379a0000000000000000000000000000000000000000000000000000000008152600401610a4b906131a5565b60405180910390fd5b610a5d816117b2565b50565b803414610aa2576040517f08c379a0000000000000000000000000000000000000000000000000000000008152600401610a9990613237565b60405180910390fd5b6000610aae60086117be565b9050610aba8484611081565b600960008573ffffffffffffffffffffffffffffffffffffffff1673ffffffffffffffffffffffffffffffffffffffff16815260200190815260200160002081908060018154018082558091505060019003906000526020600020016000909190919091505581600a6000838152602001908152602001600020819055507f63d630cf19590fbe94a0781d7c460183d9a35ebe61992d9660991d189e118971848284604051610b6b93929190613257565b60405180910390a150505050565b6000600760009054906101000a900460ff16905090565b6000806002600084815260200190815260200160002060009054906101000a900473ffffffffffffffffffffffffffffffffffffffff169050600073ffffffffffffffffffffffffffffffffffffffff168173ffffffffffffffffffffffffffffffffffffffff1603610c38576040517f08c379a0000000000000000000000000000000000000000000000000000000008152600401610c2f906132da565b60405180910390fd5b80915050919050565b610c4c3383836109e4565b610c5633826117cc565b600960008373ffffffffffffffffffffffffffffffffffffffff1673ffffffffffffffffffffffffffffffffffffffff1681526020019081526020016000208190806001815401808255809150506001900390600052602060002001600090919091909150557fc2754fefdaa857555e69b701f987aa4532350b1d4455e82be18d44f6acf195d4338383604051610cef939291906132fa565b60405180910390a15050565b6000610d0760086117be565b905090565b600047905090565b60008073ffffffffffffffffffffffffffffffffffffffff168273ffffffffffffffffffffffffffffffffffffffff1603610d84576040517f08c379a0000000000000000000000000000000000000000000000000000000008152600401610d7b906133a3565b60405180910390fd5b600360008373ffffffffffffffffffffffffffffffffffffffff1673ffffffffffffffffffffffffffffffffffffffff168152602001908152602001600020549050919050565b610dd36116d1565b610ddd6000611a34565b565b610de76116d1565b610def611afa565b565b6000600760019054906101000a900473ffffffffffffffffffffffffffffffffffffffff16905090565b6000600a6000838152602001908152602001600020549050919050565b606060018054610e4790612fde565b80601f0160208091040260200160405190810160405280929190818152602001828054610e7390612fde565b8015610ec05780601f10610e9557610100808354040283529160200191610ec0565b820191906000526020600020905b815481529060010190602001808311610ea357829003601f168201915b5050505050905090565b610edc610ed5611315565b8383611b5d565b5050565b610ef1610eeb611315565b836113d6565b610f30576040517f08c379a0000000000000000000000000000000000000000000000000000000008152600401610f27906131a5565b60405180910390fd5b610f3c84848484611cc9565b50505050565b6060610f4d82611d25565b9050919050565b610f5d81610b90565b73ffffffffffffffffffffffffffffffffffffffff163373ffffffffffffffffffffffffffffffffffffffff1614610fca576040517f08c379a0000000000000000000000000000000000000000000000000000000008152600401610fc19061340f565b60405180910390fd5b6000600a60008381526020019081526020016000205490506000600a6000848152602001908152602001600020819055503373ffffffffffffffffffffffffffffffffffffffff166108fc829081150290604051600060405180830381858888f19350505050158015611041573d6000803e3d6000fd5b507ff4c8e3a141f402733f36011a62cef94385bf3bc2905fca8df9bab1a429e5199e33838360405161107593929190613257565b60405180910390a15050565b600061108d60086117be565b90506110996008611e37565b6110a38382611e4d565b6110ad8183611e6b565b505050565b6060600960008373ffffffffffffffffffffffffffffffffffffffff1673ffffffffffffffffffffffffffffffffffffffff16815260200190815260200160002080548060200260200160405190810160405280929190818152602001828054801561113d57602002820191906000526020600020905b815481526020019060010190808311611129575b50505050509050919050565b6000600560008473ffffffffffffffffffffffffffffffffffffffff1673ffffffffffffffffffffffffffffffffffffffff16815260200190815260200160002060008373ffffffffffffffffffffffffffffffffffffffff1673ffffffffffffffffffffffffffffffffffffffff16815260200190815260200160002060009054906101000a900460ff16905092915050565b6111e56116d1565b600073ffffffffffffffffffffffffffffffffffffffff168173ffffffffffffffffffffffffffffffffffffffff1603611254576040517f08c379a000000000000000000000000000000000000000000000000000000000815260040161124b906134a1565b60405180910390fd5b61125d81611a34565b50565b60007f01ffc9a7000000000000000000000000000000000000000000000000000000007bffffffffffffffffffffffffffffffffffffffffffffffffffffffff1916827bffffffffffffffffffffffffffffffffffffffffffffffffffffffff1916149050919050565b6112d381611ed8565b611312576040517f08c379a0000000000000000000000000000000000000000000000000000000008152600401611309906132da565b60405180910390fd5b50565b600033905090565b816004600083815260200190815260200160002060006101000a81548173ffffffffffffffffffffffffffffffffffffffff021916908373ffffffffffffffffffffffffffffffffffffffff160217905550808273ffffffffffffffffffffffffffffffffffffffff1661139083610b90565b73ffffffffffffffffffffffffffffffffffffffff167f8c5be1e5ebec7d5bd14f71427d1e84f3dd0314c0f7b2291e5b200ac8c7c3b92560405160405180910390a45050565b6000806113e283610b90565b90508073ffffffffffffffffffffffffffffffffffffffff168473ffffffffffffffffffffffffffffffffffffffff16148061142457506114238185611149565b5b8061146257508373ffffffffffffffffffffffffffffffffffffffff1661144a84610815565b73ffffffffffffffffffffffffffffffffffffffff16145b91505092915050565b8273ffffffffffffffffffffffffffffffffffffffff1661148b82610b90565b73ffffffffffffffffffffffffffffffffffffffff16146114e1576040517f08c379a00000000000000000000000000000000000000000000000000000000081526004016114d890613533565b60405180910390fd5b600073ffffffffffffffffffffffffffffffffffffffff168273ffffffffffffffffffffffffffffffffffffffff1603611550576040517f08c379a0000000000000000000000000000000000000000000000000000000008152600401611547906135c5565b60405180910390fd5b61155b838383611f44565b61156660008261131d565b6001600360008573ffffffffffffffffffffffffffffffffffffffff1673ffffffffffffffffffffffffffffffffffffffff16815260200190815260200160002060008282546115b69190613614565b925050819055506001600360008473ffffffffffffffffffffffffffffffffffffffff1673ffffffffffffffffffffffffffffffffffffffff168152602001908152602001600020600082825461160d9190613648565b92505081905550816002600083815260200190815260200160002060006101000a81548173ffffffffffffffffffffffffffffffffffffffff021916908373ffffffffffffffffffffffffffffffffffffffff160217905550808273ffffffffffffffffffffffffffffffffffffffff168473ffffffffffffffffffffffffffffffffffffffff167fddf252ad1be2c89b69c2b068fc378daa952ba7f163c4a11628f55a4df523b3ef60405160405180910390a46116cc838383611f5c565b505050565b6116d9611315565b73ffffffffffffffffffffffffffffffffffffffff166116f7610df1565b73ffffffffffffffffffffffffffffffffffffffff161461174d576040517f08c379a0000000000000000000000000000000000000000000000000000000008152600401611744906136c8565b60405180910390fd5b565b611757611f61565b6000600760006101000a81548160ff0219169083151502179055507f5db9ee0a495bf2e6ff9c91a7834c1ba4fdd244a5e8aa4e537bd38aeae4b073aa61179b611315565b6040516117a891906129ce565b60405180910390a1565b6117bb81611faa565b50565b600081600001549050919050565b60005b600960008473ffffffffffffffffffffffffffffffffffffffff1673ffffffffffffffffffffffffffffffffffffffff16815260200190815260200160002080549050811015611a2f5781600960008573ffffffffffffffffffffffffffffffffffffffff1673ffffffffffffffffffffffffffffffffffffffff168152602001908152602001600020828154811061186b5761186a6136e8565b5b906000526020600020015403611a1c5760008190505b6001600960008673ffffffffffffffffffffffffffffffffffffffff1673ffffffffffffffffffffffffffffffffffffffff168152602001908152602001600020805490506118d09190613614565b8110156119b157600960008573ffffffffffffffffffffffffffffffffffffffff1673ffffffffffffffffffffffffffffffffffffffff1681526020019081526020016000206001826119239190613648565b81548110611934576119336136e8565b5b9060005260206000200154600960008673ffffffffffffffffffffffffffffffffffffffff1673ffffffffffffffffffffffffffffffffffffffff16815260200190815260200160002082815481106119905761198f6136e8565b5b906000526020600020018190555080806119a990613717565b915050611881565b50600960008473ffffffffffffffffffffffffffffffffffffffff1673ffffffffffffffffffffffffffffffffffffffff168152602001908152602001600020805480611a0157611a0061375f565b5b60019003818190600052602060002001600090559055611a2f565b8080611a2790613717565b9150506117cf565b505050565b6000600760019054906101000a900473ffffffffffffffffffffffffffffffffffffffff16905081600760016101000a81548173ffffffffffffffffffffffffffffffffffffffff021916908373ffffffffffffffffffffffffffffffffffffffff1602179055508173ffffffffffffffffffffffffffffffffffffffff168173ffffffffffffffffffffffffffffffffffffffff167f8be0079c531659141344cd1fd0a4f28419497f9722a3daafe3b4186f6b6457e060405160405180910390a35050565b611b02611ffd565b6001600760006101000a81548160ff0219169083151502179055507f62e78cea01bee320cd4e420270b5ea74000d11b0c9f74754ebdbfc544b05a258611b46611315565b604051611b5391906129ce565b60405180910390a1565b8173ffffffffffffffffffffffffffffffffffffffff168373ffffffffffffffffffffffffffffffffffffffff1603611bcb576040517f08c379a0000000000000000000000000000000000000000000000000000000008152600401611bc2906137da565b60405180910390fd5b80600560008573ffffffffffffffffffffffffffffffffffffffff1673ffffffffffffffffffffffffffffffffffffffff16815260200190815260200160002060008473ffffffffffffffffffffffffffffffffffffffff1673ffffffffffffffffffffffffffffffffffffffff16815260200190815260200160002060006101000a81548160ff0219169083151502179055508173ffffffffffffffffffffffffffffffffffffffff168373ffffffffffffffffffffffffffffffffffffffff167f17307eab39ab6107e8899845ad3d59bd9653f200f220920489ca2b5937696c3183604051611cbc919061285d565b60405180910390a3505050565b611cd484848461146b565b611ce084848484612047565b611d1f576040517f08c379a0000000000000000000000000000000000000000000000000000000008152600401611d169061386c565b60405180910390fd5b50505050565b6060611d30826112ca565b6000600660008481526020019081526020016000208054611d5090612fde565b80601f0160208091040260200160405190810160405280929190818152602001828054611d7c90612fde565b8015611dc95780601f10611d9e57610100808354040283529160200191611dc9565b820191906000526020600020905b815481529060010190602001808311611dac57829003601f168201915b505050505090506000611dda6121ce565b90506000815103611def578192505050611e32565b600082511115611e24578082604051602001611e0c9291906138c8565b60405160208183030381529060405292505050611e32565b611e2d8461220b565b925050505b919050565b6001816000016000828254019250508190555050565b611e67828260405180602001604052806000815250612273565b5050565b611e7482611ed8565b611eb3576040517f08c379a0000000000000000000000000000000000000000000000000000000008152600401611eaa9061395e565b60405180910390fd5b80600660008481526020019081526020016000209081611ed39190613b2a565b505050565b60008073ffffffffffffffffffffffffffffffffffffffff166002600084815260200190815260200160002060009054906101000a900473ffffffffffffffffffffffffffffffffffffffff1673ffffffffffffffffffffffffffffffffffffffff1614159050919050565b611f4c611ffd565b611f578383836122ce565b505050565b505050565b611f69610b79565b611fa8576040517f08c379a0000000000000000000000000000000000000000000000000000000008152600401611f9f90613c48565b60405180910390fd5b565b611fb3816122d3565b6000600660008381526020019081526020016000208054611fd390612fde565b905014611ffa57600660008281526020019081526020016000206000611ff9919061274c565b5b50565b612005610b79565b15612045576040517f08c379a000000000000000000000000000000000000000000000000000000000815260040161203c90613cb4565b60405180910390fd5b565b60006120688473ffffffffffffffffffffffffffffffffffffffff166123f0565b156121c1578373ffffffffffffffffffffffffffffffffffffffff1663150b7a02612091611315565b8786866040518563ffffffff1660e01b81526004016120b39493929190613d29565b6020604051808303816000875af19250505080156120ef57506040513d601f19601f820116820180604052508101906120ec9190613d8a565b60015b612171573d806000811461211f576040519150601f19603f3d011682016040523d82523d6000602084013e612124565b606091505b506000815103612169576040517f08c379a00000000000000000000000000000000000000000000000000000000081526004016121609061386c565b60405180910390fd5b805181602001fd5b63150b7a0260e01b7bffffffffffffffffffffffffffffffffffffffffffffffffffffffff1916817bffffffffffffffffffffffffffffffffffffffffffffffffffffffff1916149150506121c6565b600190505b949350505050565b60606040518060400160405280600781526020017f697066733a2f2f00000000000000000000000000000000000000000000000000815250905090565b6060612216826112ca565b60006122206121ce565b90506000815111612240576040518060200160405280600081525061226b565b8061224a84612413565b60405160200161225b9291906138c8565b6040516020818303038152906040525b915050919050565b61227d8383612573565b61228a6000848484612047565b6122c9576040517f08c379a00000000000000000000000000000000000000000000000000000000081526004016122c09061386c565b60405180910390fd5b505050565b505050565b60006122de82610b90565b90506122ec81600084611f44565b6122f760008361131d565b6001600360008373ffffffffffffffffffffffffffffffffffffffff1673ffffffffffffffffffffffffffffffffffffffff16815260200190815260200160002060008282546123479190613614565b925050819055506002600083815260200190815260200160002060006101000a81549073ffffffffffffffffffffffffffffffffffffffff021916905581600073ffffffffffffffffffffffffffffffffffffffff168273ffffffffffffffffffffffffffffffffffffffff167fddf252ad1be2c89b69c2b068fc378daa952ba7f163c4a11628f55a4df523b3ef60405160405180910390a46123ec81600084611f5c565b5050565b6000808273ffffffffffffffffffffffffffffffffffffffff163b119050919050565b60606000820361245a576040518060400160405280600181526020017f3000000000000000000000000000000000000000000000000000000000000000815250905061256e565b600082905060005b6000821461248c57808061247590613717565b915050600a826124859190613de6565b9150612462565b60008167ffffffffffffffff8111156124a8576124a7612ab2565b5b6040519080825280601f01601f1916602001820160405280156124da5781602001600182028036833780820191505090505b5090505b60008514612567576001826124f39190613614565b9150600a856125029190613e17565b603061250e9190613648565b60f81b818381518110612524576125236136e8565b5b60200101907effffffffffffffffffffffffffffffffffffffffffffffffffffffffffffff1916908160001a905350600a856125609190613de6565b94506124de565b8093505050505b919050565b600073ffffffffffffffffffffffffffffffffffffffff168273ffffffffffffffffffffffffffffffffffffffff16036125e2576040517f08c379a00000000000000000000000000000000000000000000000000000000081526004016125d990613e94565b60405180910390fd5b6125eb81611ed8565b1561262b576040517f08c379a000000000000000000000000000000000000000000000000000000000815260040161262290613f00565b60405180910390fd5b61263760008383611f44565b6001600360008473ffffffffffffffffffffffffffffffffffffffff1673ffffffffffffffffffffffffffffffffffffffff16815260200190815260200160002060008282546126879190613648565b92505081905550816002600083815260200190815260200160002060006101000a81548173ffffffffffffffffffffffffffffffffffffffff021916908373ffffffffffffffffffffffffffffffffffffffff160217905550808273ffffffffffffffffffffffffffffffffffffffff16600073ffffffffffffffffffffffffffffffffffffffff167fddf252ad1be2c89b69c2b068fc378daa952ba7f163c4a11628f55a4df523b3ef60405160405180910390a461274860008383611f5c565b5050565b50805461275890612fde565b6000825580601f1061276a5750612789565b601f016020900490600052602060002090810190612788919061278c565b5b50565b5b808211156127a557600081600090555060010161278d565b5090565b6000604051905090565b600080fd5b600080fd5b60007fffffffff0000000000000000000000000000000000000000000000000000000082169050919050565b6127f2816127bd565b81146127fd57600080fd5b50565b60008135905061280f816127e9565b92915050565b60006020828403121561282b5761282a6127b3565b5b600061283984828501612800565b91505092915050565b60008115159050919050565b61285781612842565b82525050565b6000602082019050612872600083018461284e565b92915050565b600081519050919050565b600082825260208201905092915050565b60005b838110156128b2578082015181840152602081019050612897565b60008484015250505050565b6000601f19601f8301169050919050565b60006128da82612878565b6128e48185612883565b93506128f4818560208601612894565b6128fd816128be565b840191505092915050565b6000602082019050818103600083015261292281846128cf565b905092915050565b6000819050919050565b61293d8161292a565b811461294857600080fd5b50565b60008135905061295a81612934565b92915050565b600060208284031215612976576129756127b3565b5b60006129848482850161294b565b91505092915050565b600073ffffffffffffffffffffffffffffffffffffffff82169050919050565b60006129b88261298d565b9050919050565b6129c8816129ad565b82525050565b60006020820190506129e360008301846129bf565b92915050565b6129f2816129ad565b81146129fd57600080fd5b50565b600081359050612a0f816129e9565b92915050565b60008060408385031215612a2c57612a2b6127b3565b5b6000612a3a85828601612a00565b9250506020612a4b8582860161294b565b9150509250929050565b600080600060608486031215612a6e57612a6d6127b3565b5b6000612a7c86828701612a00565b9350506020612a8d86828701612a00565b9250506040612a9e8682870161294b565b9150509250925092565b600080fd5b600080fd5b7f4e487b7100000000000000000000000000000000000000000000000000000000600052604160045260246000fd5b612aea826128be565b810181811067ffffffffffffffff82111715612b0957612b08612ab2565b5b80604052505050565b6000612b1c6127a9565b9050612b288282612ae1565b919050565b600067ffffffffffffffff821115612b4857612b47612ab2565b5b612b51826128be565b9050602081019050919050565b82818337600083830152505050565b6000612b80612b7b84612b2d565b612b12565b905082815260208101848484011115612b9c57612b9b612aad565b5b612ba7848285612b5e565b509392505050565b600082601f830112612bc457612bc3612aa8565b5b8135612bd4848260208601612b6d565b91505092915050565b600080600060608486031215612bf657612bf56127b3565b5b6000612c0486828701612a00565b935050602084013567ffffffffffffffff811115612c2557612c246127b8565b5b612c3186828701612baf565b9250506040612c428682870161294b565b9150509250925092565b612c558161292a565b82525050565b6000602082019050612c706000830184612c4c565b92915050565b600060208284031215612c8c57612c8b6127b3565b5b6000612c9a84828501612a00565b91505092915050565b612cac81612842565b8114612cb757600080fd5b50565b600081359050612cc981612ca3565b92915050565b60008060408385031215612ce657612ce56127b3565b5b6000612cf485828601612a00565b9250506020612d0585828601612cba565b9150509250929050565b600067ffffffffffffffff821115612d2a57612d29612ab2565b5b612d33826128be565b9050602081019050919050565b6000612d53612d4e84612d0f565b612b12565b905082815260208101848484011115612d6f57612d6e612aad565b5b612d7a848285612b5e565b509392505050565b600082601f830112612d9757612d96612aa8565b5b8135612da7848260208601612d40565b91505092915050565b60008060008060808587031215612dca57612dc96127b3565b5b6000612dd887828801612a00565b9450506020612de987828801612a00565b9350506040612dfa8782880161294b565b925050606085013567ffffffffffffffff811115612e1b57612e1a6127b8565b5b612e2787828801612d82565b91505092959194509250565b60008060408385031215612e4a57612e496127b3565b5b6000612e5885828601612a00565b925050602083013567ffffffffffffffff811115612e7957612e786127b8565b5b612e8585828601612baf565b9150509250929050565b600081519050919050565b600082825260208201905092915050565b6000819050602082019050919050565b612ec48161292a565b82525050565b6000612ed68383612ebb565b60208301905092915050565b6000602082019050919050565b6000612efa82612e8f565b612f048185612e9a565b9350612f0f83612eab565b8060005b83811015612f40578151612f278882612eca565b9750612f3283612ee2565b925050600181019050612f13565b5085935050505092915050565b60006020820190508181036000830152612f678184612eef565b905092915050565b60008060408385031215612f8657612f856127b3565b5b6000612f9485828601612a00565b9250506020612fa585828601612a00565b9150509250929050565b7f4e487b7100000000000000000000000000000000000000000000000000000000600052602260045260246000fd5b60006002820490506001821680612ff657607f821691505b60208210810361300957613008612faf565b5b50919050565b7f4552433732313a20617070726f76616c20746f2063757272656e74206f776e6560008201527f7200000000000000000000000000000000000000000000000000000000000000602082015250565b600061306b602183612883565b91506130768261300f565b604082019050919050565b6000602082019050818103600083015261309a8161305e565b9050919050565b7f4552433732313a20617070726f76652063616c6c6572206973206e6f7420746f60008201527f6b656e206f776e6572206e6f7220617070726f76656420666f7220616c6c0000602082015250565b60006130fd603e83612883565b9150613108826130a1565b604082019050919050565b6000602082019050818103600083015261312c816130f0565b9050919050565b7f4552433732313a2063616c6c6572206973206e6f7420746f6b656e206f776e6560008201527f72206e6f7220617070726f766564000000000000000000000000000000000000602082015250565b600061318f602e83612883565b915061319a82613133565b604082019050919050565b600060208201905081810360008301526131be81613182565b9050919050565b7f4554482073656e74206973206e6f7420657175616c20746f206465736972656460008201527f20696e6675736564204554480000000000000000000000000000000000000000602082015250565b6000613221602c83612883565b915061322c826131c5565b604082019050919050565b6000602082019050818103600083015261325081613214565b9050919050565b600060608201905061326c60008301866129bf565b6132796020830185612c4c565b6132866040830184612c4c565b949350505050565b7f4552433732313a20696e76616c696420746f6b656e2049440000000000000000600082015250565b60006132c4601883612883565b91506132cf8261328e565b602082019050919050565b600060208201905081810360008301526132f3816132b7565b9050919050565b600060608201905061330f60008301866129bf565b61331c60208301856129bf565b6133296040830184612c4c565b949350505050565b7f4552433732313a2061646472657373207a65726f206973206e6f74206120766160008201527f6c6964206f776e65720000000000000000000000000000000000000000000000602082015250565b600061338d602983612883565b915061339882613331565b604082019050919050565b600060208201905081810360008301526133bc81613380565b9050919050565b7f4f6e6c79206f776e6572206f66204e46542063616e20636c61696d2045746800600082015250565b60006133f9601f83612883565b9150613404826133c3565b602082019050919050565b60006020820190508181036000830152613428816133ec565b9050919050565b7f4f776e61626c653a206e6577206f776e657220697320746865207a65726f206160008201527f6464726573730000000000000000000000000000000000000000000000000000602082015250565b600061348b602683612883565b91506134968261342f565b604082019050919050565b600060208201905081810360008301526134ba8161347e565b9050919050565b7f4552433732313a207472616e736665722066726f6d20696e636f72726563742060008201527f6f776e6572000000000000000000000000000000000000000000000000000000602082015250565b600061351d602583612883565b9150613528826134c1565b604082019050919050565b6000602082019050818103600083015261354c81613510565b9050919050565b7f4552433732313a207472616e7366657220746f20746865207a65726f2061646460008201527f7265737300000000000000000000000000000000000000000000000000000000602082015250565b60006135af602483612883565b91506135ba82613553565b604082019050919050565b600060208201905081810360008301526135de816135a2565b9050919050565b7f4e487b7100000000000000000000000000000000000000000000000000000000600052601160045260246000fd5b600061361f8261292a565b915061362a8361292a565b9250828203905081811115613642576136416135e5565b5b92915050565b60006136538261292a565b915061365e8361292a565b9250828201905080821115613676576136756135e5565b5b92915050565b7f4f776e61626c653a2063616c6c6572206973206e6f7420746865206f776e6572600082015250565b60006136b2602083612883565b91506136bd8261367c565b602082019050919050565b600060208201905081810360008301526136e1816136a5565b9050919050565b7f4e487b7100000000000000000000000000000000000000000000000000000000600052603260045260246000fd5b60006137228261292a565b91507fffffffffffffffffffffffffffffffffffffffffffffffffffffffffffffffff8203613754576137536135e5565b5b600182019050919050565b7f4e487b7100000000000000000000000000000000000000000000000000000000600052603160045260246000fd5b7f4552433732313a20617070726f766520746f2063616c6c657200000000000000600082015250565b60006137c4601983612883565b91506137cf8261378e565b602082019050919050565b600060208201905081810360008301526137f3816137b7565b9050919050565b7f4552433732313a207472616e7366657220746f206e6f6e20455243373231526560008201527f63656976657220696d706c656d656e7465720000000000000000000000000000602082015250565b6000613856603283612883565b9150613861826137fa565b604082019050919050565b6000602082019050818103600083015261388581613849565b9050919050565b600081905092915050565b60006138a282612878565b6138ac818561388c565b93506138bc818560208601612894565b80840191505092915050565b60006138d48285613897565b91506138e08284613897565b91508190509392505050565b7f45524337323155524953746f726167653a2055524920736574206f66206e6f6e60008201527f6578697374656e7420746f6b656e000000000000000000000000000000000000602082015250565b6000613948602e83612883565b9150613953826138ec565b604082019050919050565b600060208201905081810360008301526139778161393b565b9050919050565b60008190508160005260206000209050919050565b60006020601f8301049050919050565b600082821b905092915050565b6000600883026139e07fffffffffffffffffffffffffffffffffffffffffffffffffffffffffffffffff826139a3565b6139ea86836139a3565b95508019841693508086168417925050509392505050565b6000819050919050565b6000613a27613a22613a1d8461292a565b613a02565b61292a565b9050919050565b6000819050919050565b613a4183613a0c565b613a55613a4d82613a2e565b8484546139b0565b825550505050565b600090565b613a6a613a5d565b613a75818484613a38565b505050565b5b81811015613a9957613a8e600082613a62565b600181019050613a7b565b5050565b601f821115613ade57613aaf8161397e565b613ab884613993565b81016020851015613ac7578190505b613adb613ad385613993565b830182613a7a565b50505b505050565b600082821c905092915050565b6000613b0160001984600802613ae3565b1980831691505092915050565b6000613b1a8383613af0565b9150826002028217905092915050565b613b3382612878565b67ffffffffffffffff811115613b4c57613b4b612ab2565b5b613b568254612fde565b613b61828285613a9d565b600060209050601f831160018114613b945760008415613b82578287015190505b613b8c8582613b0e565b865550613bf4565b601f198416613ba28661397e565b60005b82811015613bca57848901518255600182019150602085019450602081019050613ba5565b86831015613be75784890151613be3601f891682613af0565b8355505b6001600288020188555050505b505050505050565b7f5061757361626c653a206e6f7420706175736564000000000000000000000000600082015250565b6000613c32601483612883565b9150613c3d82613bfc565b602082019050919050565b60006020820190508181036000830152613c6181613c25565b9050919050565b7f5061757361626c653a2070617573656400000000000000000000000000000000600082015250565b6000613c9e601083612883565b9150613ca982613c68565b602082019050919050565b60006020820190508181036000830152613ccd81613c91565b9050919050565b600081519050919050565b600082825260208201905092915050565b6000613cfb82613cd4565b613d058185613cdf565b9350613d15818560208601612894565b613d1e816128be565b840191505092915050565b6000608082019050613d3e60008301876129bf565b613d4b60208301866129bf565b613d586040830185612c4c565b8181036060830152613d6a8184613cf0565b905095945050505050565b600081519050613d84816127e9565b92915050565b600060208284031215613da057613d9f6127b3565b5b6000613dae84828501613d75565b91505092915050565b7f4e487b7100000000000000000000000000000000000000000000000000000000600052601260045260246000fd5b6000613df18261292a565b9150613dfc8361292a565b925082613e0c57613e0b613db7565b5b828204905092915050565b6000613e228261292a565b9150613e2d8361292a565b925082613e3d57613e3c613db7565b5b828206905092915050565b7f4552433732313a206d696e7420746f20746865207a65726f2061646472657373600082015250565b6000613e7e602083612883565b9150613e8982613e48565b602082019050919050565b60006020820190508181036000830152613ead81613e71565b9050919050565b7f4552433732313a20746f6b656e20616c7265616479206d696e74656400000000600082015250565b6000613eea601c83612883565b9150613ef582613eb4565b602082019050919050565b60006020820190508181036000830152613f1981613edd565b905091905056fea2646970667358221220e1c4c2404654863b4d9ec468627f273a06d5e6681aa7f23cb287aa93034551f164736f6c63430008110033",
  "immutableReferences": {},
  "source": "// SPDX-License-Identifier: MIT\npragma solidity ^0.8.4;\n\nimport \"@openzeppelin/contracts/token/ERC721/ERC721.sol\";\nimport \"@openzeppelin/contracts/token/ERC721/extensions/ERC721URIStorage.sol\";\nimport \"@openzeppelin/contracts/security/Pausable.sol\";\nimport \"@openzeppelin/contracts/access/Ownable.sol\";\nimport \"@openzeppelin/contracts/token/ERC721/extensions/ERC721Burnable.sol\";\nimport \"@openzeppelin/contracts/utils/Counters.sol\";\n\ncontract MomentoX is ERC721, ERC721URIStorage, Pausable, Ownable, ERC721Burnable {\n    using Counters for Counters.Counter;\n\n    Counters.Counter private _tokenIdCounter;\n\n    constructor() ERC721(\"MomentoX\", \"MOX\") {}\n\n// ****************** non ERC721 **********************************************************//\n    mapping(address => uint256[]) private mappingOwnerNFTs;   // Owner to NFTs tokenId owned\n    mapping(uint256 => uint256) private mappingNftInfusedEth; // NFT to amount ETH infused\n    event EthInfused(address _who, uint256 _nftId, uint _amount);\n    event EthClaimed(address _who, uint256 _nftId, uint _amount);\n    event NftTransfered(address _from, address _to, uint256 _nftId);\n\n    function _removeNftFromOwner(address owner, uint256 nftId) private {\n        for (uint256 i = 0; i < mappingOwnerNFTs[owner].length; i++) {\n            if (mappingOwnerNFTs[owner][i] == nftId) {\n                for (uint j = i; j < mappingOwnerNFTs[owner].length - 1; j++) {\n                    mappingOwnerNFTs[owner][j] = mappingOwnerNFTs[owner][j + 1];\n                }\n                mappingOwnerNFTs[owner].pop();\n                break;\n            }\n        }\n    }\n    \n    function safeMintInfused(address to, string memory uri, uint256 ethWei) public payable {\n        require(msg.value == ethWei, \"ETH sent is not equal to desired infused ETH\");\n        uint256 tokenId = _tokenIdCounter.current();\n        safeMint(to, uri);\n        mappingOwnerNFTs[to].push(tokenId);\n        mappingNftInfusedEth[tokenId] = ethWei;\n\n        emit EthInfused(to, tokenId, ethWei);\n    }\n\n    function getOwnerNFT(address owner) public view returns (uint256[] memory) {\n        return mappingOwnerNFTs[owner];\n    }\n\n    function getNftInfusedEth(uint256 nftId) public view returns (uint256) {\n        return mappingNftInfusedEth[nftId];\n    }\n\n    function getContractBalance() public view returns (uint256) {\n        return address(this).balance;\n    }\n\n    function claimEth(uint256 nftId) public {\n        require(msg.sender == ownerOf(nftId), \"Only owner of NFT can claim Eth\");\n        uint256 ethNFT = mappingNftInfusedEth[nftId];\n\n        mappingNftInfusedEth[nftId] = 0;\n        payable(msg.sender).transfer(ethNFT);\n\n        emit EthClaimed(msg.sender, nftId, ethNFT);\n    }\n\n    function safeTransferInfusedNft(address to, uint256 nftId) public {\n        \n        safeTransferFrom(msg.sender, to, nftId);\n        // update previous owner NFTs\n        _removeNftFromOwner(msg.sender, nftId);\n        // update new owner NFTs\n        mappingOwnerNFTs[to].push(nftId);\n\n        emit NftTransfered(msg.sender, to, nftId);\n    }\n\n    function getTokenCounter() public view returns (uint256) {\n        return _tokenIdCounter.current();\n    }\n\n    // ****************** End of non ERC721 **********************************************************//\n\n\n    function _baseURI() internal pure override returns (string memory) {\n        return \"ipfs://\";\n    }\n\n    function pause() public onlyOwner {\n        _pause();\n    }\n\n    function unpause() public onlyOwner {\n        _unpause();\n    }\n\n    function safeMint(address to, string memory uri) public {\n        uint256 tokenId = _tokenIdCounter.current();\n        _tokenIdCounter.increment();\n        _safeMint(to, tokenId);\n        _setTokenURI(tokenId, uri);\n    }\n\n    function _beforeTokenTransfer(address from, address to, uint256 tokenId)\n        internal\n        whenNotPaused\n        override\n    {\n        super._beforeTokenTransfer(from, to, tokenId);\n    }\n\n    // The following functions are overrides required by Solidity.\n\n    function _burn(uint256 tokenId) internal override(ERC721, ERC721URIStorage) {\n        super._burn(tokenId);\n    }\n\n    function tokenURI(uint256 tokenId)\n        public\n        view\n        override(ERC721, ERC721URIStorage)\n        returns (string memory)\n    {\n        return super.tokenURI(tokenId);\n    }\n}",
  "sourcePath": "/home/test/momentox/contracts/MomentoX.sol",
  "compiler": {
    "name": "solc",
    "version": "0.8.17+commit.8df45f5f.Emscripten.clang"
  },
  "schemaVersion": "3.4.10",
  "updatedAt": "2022-12-27T08:50:40.302Z",
  "networkType": "ethereum",
  "devdoc": {
    "kind": "dev",
    "methods": {
      "approve(address,uint256)": {
        "details": "See {IERC721-approve}."
      },
      "balanceOf(address)": {
        "details": "See {IERC721-balanceOf}."
      },
      "burn(uint256)": {
        "details": "Burns `tokenId`. See {ERC721-_burn}. Requirements: - The caller must own `tokenId` or be an approved operator."
      },
      "getApproved(uint256)": {
        "details": "See {IERC721-getApproved}."
      },
      "isApprovedForAll(address,address)": {
        "details": "See {IERC721-isApprovedForAll}."
      },
      "name()": {
        "details": "See {IERC721Metadata-name}."
      },
      "owner()": {
        "details": "Returns the address of the current owner."
      },
      "ownerOf(uint256)": {
        "details": "See {IERC721-ownerOf}."
      },
      "paused()": {
        "details": "Returns true if the contract is paused, and false otherwise."
      },
      "renounceOwnership()": {
        "details": "Leaves the contract without owner. It will not be possible to call `onlyOwner` functions anymore. Can only be called by the current owner. NOTE: Renouncing ownership will leave the contract without an owner, thereby removing any functionality that is only available to the owner."
      },
      "safeTransferFrom(address,address,uint256)": {
        "details": "See {IERC721-safeTransferFrom}."
      },
      "safeTransferFrom(address,address,uint256,bytes)": {
        "details": "See {IERC721-safeTransferFrom}."
      },
      "setApprovalForAll(address,bool)": {
        "details": "See {IERC721-setApprovalForAll}."
      },
      "supportsInterface(bytes4)": {
        "details": "See {IERC165-supportsInterface}."
      },
      "symbol()": {
        "details": "See {IERC721Metadata-symbol}."
      },
      "transferFrom(address,address,uint256)": {
        "details": "See {IERC721-transferFrom}."
      },
      "transferOwnership(address)": {
        "details": "Transfers ownership of the contract to a new account (`newOwner`). Can only be called by the current owner."
      }
    },
    "version": 1
  },
  "userdoc": {
    "kind": "user",
    "methods": {},
    "version": 1
  }
}